:100000000C942A000C9447000C9447000C94470071
:100010000C9447000C9447000C9447000C94470044
:100020000C9447000C9447000C9447000C94470034
:100030000C9447000C9436020C9447000C945F0219
:100040000C9447000C9447000C9447000C94470014
:100050000C94470011241FBECFE5D8E0DEBFCDBF12
:1000600010E0A0E6B0E0E8E5F5E002C005900D92F2
:10007000A237B107D9F720E0A2E7B0E001C01D9296
:10008000A637B207E1F70E9499010C94AA020C94DA
:1000900000008FEF8ABB8FE087BB8FE784BB88E0CF
:1000A00081BB08958630A1F018F4853031F00895B1
:1000B0008730C9F0883011F108952BB381E090E0CA
:1000C00002C0880F991F6A95E2F7822B8BBB0895B7
:1000D00028B381E090E002C0880F991F6A95E2F78B
:1000E000822B88BB089525B381E090E002C0880F81
:1000F000991F6A95E2F7822B85BB089522B381E0B0
:1001000090E002C0880F991F6A95E2F7822B82BBAC
:1001100008958630A9F018F4853031F008958730BD
:10012000D9F0883029F108952BB381E090E002C026
:10013000880F991F6A95E2F7809582238BBB0895FB
:1001400028B381E090E002C0880F991F6A95E2F71A
:100150008095822388BB089525B381E090E002C09A
:10016000880F991F6A95E2F78095822385BB0895D1
:1001700022B381E090E002C0880F991F6A95E2F7F0
:100180008095822382BB0895863059F018F485301B
:1001900031F00895873039F0883039F008956BBB1D
:1001A000089568BB089565BB089562BB0895CF9319
:1001B000C82F61E086E00E94520062E086E00E9463
:1001C00089006C2F607F85E00E94C40063E086E0B8
:1001D0000E9452008FE99FE00197F1F700C00000F4
:1001E00063E086E00E9489008FE99FE00197F1F7C4
:1001F00000C000006C2F6295607F85E00E94C40003
:1002000063E086E00E9452008FE99FE00197F1F7DA
:1002100000C0000063E086E00E9489008FE99FE053
:100220000197F1F700C00000CF910895CF93C82F38
:1002300061E086E00E94890062E086E00E94890019
:100240006C2F607F85E00E94C40063E086E00E941E
:1002500052008FE99FE00197F1F700C0000063E0D2
:1002600086E00E9489008FE99FE00197F1F700C0C6
:1002700000006C2F6295607F85E00E94C40063E0FF
:1002800086E00E9452008FE99FE00197F1F700C0DD
:10029000000063E086E00E9489008FE99FE00197FB
:1002A000F1F700C00000CF9108952FEF89EF90E0A3
:1002B000215080409040E1F700C0000083E30E949D
:1002C000160182E30E94160188E20E9416018CE06A
:1002D0000E94160186E00E94160181E00E9416012C
:1002E00008950F931F93CF938C01C0E003C00E9429
:1002F000D700CF5FF801EC0FF11D80818111F7CF9E
:10030000CF911F910F910895882319F0813021F02A
:1003100006C080E8860F04C080EC860F01C080E034
:100320000E9416018FE99FE00197F1F700C00000DD
:1003300008950E9449000E94550160E875E280E03E
:1003400090E00E94D201C2E060E080E00E9484015F
:1003500081E690E00E94710169E080E00E948401E2
:100360000E94320280936000813319F0823321F4BD
:1003700002C0C0E001C0C1E0C11109C060E086E078
:100380000E94520089E690E00E947101DDCFC130E9
:10039000D9F660E086E00E9489008DE690E00E9438
:1003A0007101D2CFAB01BC0180B5806880BD8BB13B
:1003B0008D7F8BB98AB18F778AB98AB180648AB907
:1003C0008AB18F7D8AB98AB180618AB98AB1886021
:1003D0008AB980B5806880BD8AB18B7F8AB980B5C3
:1003E000846080BD80B5826080BD80B5806880BD3E
:1003F00080B58F7B80BD80B5806880BD80B5806210
:1004000080BD80B5806180BD80B5806880BD80B5CD
:10041000877F80BDDB01CA01880F991FAA1FBB1F00
:10042000880F991FAA1FBB1F9C01AD01220F331F0C
:10043000441F551F220F331F441F551F60E074E2F5
:1004400084EF90E00E9488028FEF820F89B9DA0171
:10045000C9010197A109B109892F9A2FAB2FBB2799
:1004600080BD08955F9BFECF8CB108951F920F92BF
:100470000FB60F9211242F933F934F935F936F9377
:100480007F938F939F93AF93BF93EF93FF93E091ED
:100490007400F0917500309709F00995FF91EF9184
:1004A000BF91AF919F918F917F916F915F914F918C
:1004B0003F912F910F900FBE0F901F9018951F9294
:1004C0000F920FB60F9211242F933F934F935F9388
:1004D0006F937F938F939F93AF93BF93EF93FF930C
:1004E000E0917200F0917300309709F00995FF9147
:1004F000EF91BF91AF919F918F917F916F915F919C
:100500004F913F912F910F900FBE0F901F90189514
:10051000A1E21A2EAA1BBB1BFD010DC0AA1FBB1F07
:10052000EE1FFF1FA217B307E407F50720F0A21B79
:10053000B30BE40BF50B661F771F881F991F1A94E6
:1005400069F760957095809590959B01AC01BD0110
:08055000CF010895F894FFCFDC
:100558006E7374617475733D004F4E20004F4646AC
:02056800000091
:00000001FF
